{
  "contractName": "Poll",
  "abi": [
    {
      "inputs": [
        {
          "internalType": "string[]",
          "name": "presidentialCandidatesNames",
          "type": "string[]"
        }
      ],
      "stateMutability": "nonpayable",
      "type": "constructor"
    },
    {
      "inputs": [
        {
          "internalType": "uint256",
          "name": "",
          "type": "uint256"
        }
      ],
      "name": "delegateCandidates",
      "outputs": [
        {
          "internalType": "string",
          "name": "name",
          "type": "string"
        },
        {
          "internalType": "uint256",
          "name": "voteWeight",
          "type": "uint256"
        },
        {
          "internalType": "bool",
          "name": "votedForDelegate",
          "type": "bool"
        },
        {
          "internalType": "bool",
          "name": "votedForChairPerson",
          "type": "bool"
        },
        {
          "internalType": "uint256",
          "name": "vote",
          "type": "uint256"
        },
        {
          "internalType": "bool",
          "name": "isDelegate",
          "type": "bool"
        },
        {
          "internalType": "uint256",
          "name": "voteCount",
          "type": "uint256"
        }
      ],
      "stateMutability": "view",
      "type": "function",
      "constant": true
    },
    {
      "inputs": [
        {
          "internalType": "uint256",
          "name": "",
          "type": "uint256"
        }
      ],
      "name": "delegates",
      "outputs": [
        {
          "internalType": "string",
          "name": "name",
          "type": "string"
        },
        {
          "internalType": "uint256",
          "name": "voteWeight",
          "type": "uint256"
        },
        {
          "internalType": "bool",
          "name": "votedForDelegate",
          "type": "bool"
        },
        {
          "internalType": "bool",
          "name": "votedForChairPerson",
          "type": "bool"
        },
        {
          "internalType": "uint256",
          "name": "vote",
          "type": "uint256"
        },
        {
          "internalType": "bool",
          "name": "isDelegate",
          "type": "bool"
        },
        {
          "internalType": "uint256",
          "name": "voteCount",
          "type": "uint256"
        }
      ],
      "stateMutability": "view",
      "type": "function",
      "constant": true
    },
    {
      "inputs": [
        {
          "internalType": "uint256",
          "name": "",
          "type": "uint256"
        }
      ],
      "name": "presidentialCandidates",
      "outputs": [
        {
          "internalType": "string",
          "name": "name",
          "type": "string"
        },
        {
          "internalType": "uint256",
          "name": "voteCount",
          "type": "uint256"
        }
      ],
      "stateMutability": "view",
      "type": "function",
      "constant": true
    },
    {
      "inputs": [
        {
          "internalType": "address",
          "name": "",
          "type": "address"
        }
      ],
      "name": "voters",
      "outputs": [
        {
          "internalType": "string",
          "name": "name",
          "type": "string"
        },
        {
          "internalType": "uint256",
          "name": "voteWeight",
          "type": "uint256"
        },
        {
          "internalType": "bool",
          "name": "votedForDelegate",
          "type": "bool"
        },
        {
          "internalType": "bool",
          "name": "votedForChairPerson",
          "type": "bool"
        },
        {
          "internalType": "uint256",
          "name": "vote",
          "type": "uint256"
        },
        {
          "internalType": "bool",
          "name": "isDelegate",
          "type": "bool"
        },
        {
          "internalType": "uint256",
          "name": "voteCount",
          "type": "uint256"
        }
      ],
      "stateMutability": "view",
      "type": "function",
      "constant": true
    },
    {
      "inputs": [],
      "name": "getPresidentialCandidates",
      "outputs": [
        {
          "components": [
            {
              "internalType": "string",
              "name": "name",
              "type": "string"
            },
            {
              "internalType": "uint256",
              "name": "voteCount",
              "type": "uint256"
            }
          ],
          "internalType": "struct Poll.Candidate[]",
          "name": "presidentialCandidates_",
          "type": "tuple[]"
        }
      ],
      "stateMutability": "view",
      "type": "function",
      "constant": true
    },
    {
      "inputs": [
        {
          "components": [
            {
              "internalType": "string",
              "name": "name",
              "type": "string"
            },
            {
              "internalType": "uint256",
              "name": "voteWeight",
              "type": "uint256"
            },
            {
              "internalType": "bool",
              "name": "votedForDelegate",
              "type": "bool"
            },
            {
              "internalType": "bool",
              "name": "votedForChairPerson",
              "type": "bool"
            },
            {
              "internalType": "uint256",
              "name": "vote",
              "type": "uint256"
            },
            {
              "internalType": "bool",
              "name": "isDelegate",
              "type": "bool"
            },
            {
              "internalType": "uint256",
              "name": "voteCount",
              "type": "uint256"
            }
          ],
          "internalType": "struct Poll.Voter",
          "name": "voter",
          "type": "tuple"
        }
      ],
      "name": "addDelegateCandidate",
      "outputs": [],
      "stateMutability": "nonpayable",
      "type": "function"
    },
    {
      "inputs": [],
      "name": "getDelegateCandidates",
      "outputs": [
        {
          "components": [
            {
              "internalType": "string",
              "name": "name",
              "type": "string"
            },
            {
              "internalType": "uint256",
              "name": "voteWeight",
              "type": "uint256"
            },
            {
              "internalType": "bool",
              "name": "votedForDelegate",
              "type": "bool"
            },
            {
              "internalType": "bool",
              "name": "votedForChairPerson",
              "type": "bool"
            },
            {
              "internalType": "uint256",
              "name": "vote",
              "type": "uint256"
            },
            {
              "internalType": "bool",
              "name": "isDelegate",
              "type": "bool"
            },
            {
              "internalType": "uint256",
              "name": "voteCount",
              "type": "uint256"
            }
          ],
          "internalType": "struct Poll.Voter[]",
          "name": "delegateCandidates_",
          "type": "tuple[]"
        }
      ],
      "stateMutability": "view",
      "type": "function",
      "constant": true
    },
    {
      "inputs": [
        {
          "internalType": "string",
          "name": "name",
          "type": "string"
        }
      ],
      "name": "registerAsDelegateCandidate",
      "outputs": [],
      "stateMutability": "nonpayable",
      "type": "function"
    },
    {
      "inputs": [
        {
          "internalType": "uint256",
          "name": "delegateCandidate",
          "type": "uint256"
        }
      ],
      "name": "delegatesPoll",
      "outputs": [],
      "stateMutability": "nonpayable",
      "type": "function"
    },
    {
      "inputs": [
        {
          "internalType": "uint256",
          "name": "presidentialCandidate",
          "type": "uint256"
        }
      ],
      "name": "presidentialPoll",
      "outputs": [],
      "stateMutability": "nonpayable",
      "type": "function"
    },
    {
      "inputs": [],
      "name": "winningDelegatesPoll",
      "outputs": [
        {
          "components": [
            {
              "internalType": "string",
              "name": "name",
              "type": "string"
            },
            {
              "internalType": "uint256",
              "name": "voteWeight",
              "type": "uint256"
            },
            {
              "internalType": "bool",
              "name": "votedForDelegate",
              "type": "bool"
            },
            {
              "internalType": "bool",
              "name": "votedForChairPerson",
              "type": "bool"
            },
            {
              "internalType": "uint256",
              "name": "vote",
              "type": "uint256"
            },
            {
              "internalType": "bool",
              "name": "isDelegate",
              "type": "bool"
            },
            {
              "internalType": "uint256",
              "name": "voteCount",
              "type": "uint256"
            }
          ],
          "internalType": "struct Poll.Voter[]",
          "name": "winningDelegatesPoll_",
          "type": "tuple[]"
        }
      ],
      "stateMutability": "nonpayable",
      "type": "function"
    },
    {
      "inputs": [],
      "name": "winningPresidentialPoll",
      "outputs": [
        {
          "components": [
            {
              "internalType": "string",
              "name": "name",
              "type": "string"
            },
            {
              "internalType": "uint256",
              "name": "voteCount",
              "type": "uint256"
            }
          ],
          "internalType": "struct Poll.Candidate",
          "name": "winningPresidentialPoll_",
          "type": "tuple"
        }
      ],
      "stateMutability": "view",
      "type": "function",
      "constant": true
    },
    {
      "inputs": [
        {
          "components": [
            {
              "internalType": "string",
              "name": "name",
              "type": "string"
            },
            {
              "internalType": "uint256",
              "name": "voteWeight",
              "type": "uint256"
            },
            {
              "internalType": "bool",
              "name": "votedForDelegate",
              "type": "bool"
            },
            {
              "internalType": "bool",
              "name": "votedForChairPerson",
              "type": "bool"
            },
            {
              "internalType": "uint256",
              "name": "vote",
              "type": "uint256"
            },
            {
              "internalType": "bool",
              "name": "isDelegate",
              "type": "bool"
            },
            {
              "internalType": "uint256",
              "name": "voteCount",
              "type": "uint256"
            }
          ],
          "internalType": "struct Poll.Voter[]",
          "name": "data",
          "type": "tuple[]"
        }
      ],
      "name": "sort",
      "outputs": [
        {
          "components": [
            {
              "internalType": "string",
              "name": "name",
              "type": "string"
            },
            {
              "internalType": "uint256",
              "name": "voteWeight",
              "type": "uint256"
            },
            {
              "internalType": "bool",
              "name": "votedForDelegate",
              "type": "bool"
            },
            {
              "internalType": "bool",
              "name": "votedForChairPerson",
              "type": "bool"
            },
            {
              "internalType": "uint256",
              "name": "vote",
              "type": "uint256"
            },
            {
              "internalType": "bool",
              "name": "isDelegate",
              "type": "bool"
            },
            {
              "internalType": "uint256",
              "name": "voteCount",
              "type": "uint256"
            }
          ],
          "internalType": "struct Poll.Voter[]",
          "name": "",
          "type": "tuple[]"
        }
      ],
      "stateMutability": "nonpayable",
      "type": "function"
    }
  ],
  "bytecode": "0x60806040523480156200001157600080fd5b506040516200309138038062003091833981810160405281019062000037919062000434565b60005b8151811015620000e3576001604051806040016040528084848151811062000067576200006662000485565b5b60200260200101518152602001600081525090806001815401808255809150506001900390600052602060002090600202016000909190919091506000820151816000019080519060200190620000c0929190620000eb565b506020820151816001015550508080620000da90620004ed565b9150506200003a565b5050620005a0565b828054620000f9906200056a565b90600052602060002090601f0160209004810192826200011d576000855562000169565b82601f106200013857805160ff191683800117855562000169565b8280016001018555821562000169579182015b82811115620001685782518255916020019190600101906200014b565b5b5090506200017891906200017c565b5090565b5b80821115620001975760008160009055506001016200017d565b5090565b6000604051905090565b600080fd5b600080fd5b600080fd5b6000601f19601f8301169050919050565b7f4e487b7100000000000000000000000000000000000000000000000000000000600052604160045260246000fd5b620001ff82620001b4565b810181811067ffffffffffffffff82111715620002215762000220620001c5565b5b80604052505050565b6000620002366200019b565b9050620002448282620001f4565b919050565b600067ffffffffffffffff821115620002675762000266620001c5565b5b602082029050602081019050919050565b600080fd5b600080fd5b600067ffffffffffffffff821115620002a0576200029f620001c5565b5b620002ab82620001b4565b9050602081019050919050565b60005b83811015620002d8578082015181840152602081019050620002bb565b83811115620002e8576000848401525b50505050565b600062000305620002ff8462000282565b6200022a565b9050828152602081018484840111156200032457620003236200027d565b5b62000331848285620002b8565b509392505050565b600082601f830112620003515762000350620001af565b5b815162000363848260208601620002ee565b91505092915050565b6000620003836200037d8462000249565b6200022a565b90508083825260208201905060208402830185811115620003a957620003a862000278565b5b835b81811015620003f757805167ffffffffffffffff811115620003d257620003d1620001af565b5b808601620003e1898262000339565b85526020850194505050602081019050620003ab565b5050509392505050565b600082601f830112620004195762000418620001af565b5b81516200042b8482602086016200036c565b91505092915050565b6000602082840312156200044d576200044c620001a5565b5b600082015167ffffffffffffffff8111156200046e576200046d620001aa565b5b6200047c8482850162000401565b91505092915050565b7f4e487b7100000000000000000000000000000000000000000000000000000000600052603260045260246000fd5b7f4e487b7100000000000000000000000000000000000000000000000000000000600052601160045260246000fd5b6000819050919050565b6000620004fa82620004e3565b91507fffffffffffffffffffffffffffffffffffffffffffffffffffffffffffffffff82141562000530576200052f620004b4565b5b600182019050919050565b7f4e487b7100000000000000000000000000000000000000000000000000000000600052602260045260246000fd5b600060028204905060018216806200058357607f821691505b602082108114156200059a57620005996200053b565b5b50919050565b612ae180620005b06000396000f3fe608060405234801561001057600080fd5b50600436106100cf5760003560e01c8063a152c8b51161008c578063d4f91c5e11610066578063d4f91c5e1461024b578063e7c1cabf14610269578063f7f25ca614610285578063fa0c900a146102a3576100cf565b8063a152c8b5146101c1578063a3ec138d146101df578063b1548afc14610215576100cf565b80630aa49da6146100d457806312c488ee146100f0578063132208a41461010e5780631d7b24ff1461013e578063237d6bf0146101745780632a29eadb14610190575b600080fd5b6100ee60048036038101906100e99190611a91565b6102bf565b005b6100f8610718565b6040516101059190611c7a565b60405180910390f35b61012860048036038101906101239190611ec0565b610813565b6040516101359190612076565b60405180910390f35b61015860048036038101906101539190612098565b610836565b60405161016b979695949392919061212d565b60405180910390f35b61018e60048036038101906101899190612098565b610937565b005b6101aa60048036038101906101a59190612098565b610b20565b6040516101b89291906121a3565b60405180910390f35b6101c9610bdc565b6040516101d69190612076565b60405180910390f35b6101f960048036038101906101f49190612231565b610d3c565b60405161020c979695949392919061212d565b60405180910390f35b61022f600480360381019061022a9190612098565b610e2d565b604051610242979695949392919061212d565b60405180910390f35b610253610f2e565b604051610260919061229b565b60405180910390f35b610283600480360381019061027e9190612098565b611080565b005b61028d611215565b60405161029a9190612076565b60405180910390f35b6102bd60048036038101906102b891906122bd565b611604565b005b60008060003373ffffffffffffffffffffffffffffffffffffffff1673ffffffffffffffffffffffffffffffffffffffff16815260200190815260200160002090508060040160009054906101000a900460ff1615610353576040517f08c379a000000000000000000000000000000000000000000000000000000000815260040161034a90612352565b60405180910390fd5b60056002805490501061039b576040517f08c379a0000000000000000000000000000000000000000000000000000000008152600401610392906123be565b60405180910390fd5b818160000190805190602001906103b392919061187a565b506046816001018190555060008160020160006101000a81548160ff02191690831515021790555060008160020160016101000a81548160ff0219169083151502179055506000816003018190555060018160040160006101000a81548160ff02191690831515021790555060008160050181905550600060028054905014156105515761054c816040518060e00160405290816000820180546104569061240d565b80601f01602080910402602001604051908101604052809291908181526020018280546104829061240d565b80156104cf5780601f106104a4576101008083540402835291602001916104cf565b820191906000526020600020905b8154815290600101906020018083116104b257829003601f168201915b50505050508152602001600182015481526020016002820160009054906101000a900460ff161515151581526020016002820160019054906101000a900460ff16151515158152602001600382015481526020016004820160009054906101000a900460ff16151515158152602001600582015481525050611604565b610714565b6000805b6002805490508110156105f65783604051602001610573919061247b565b604051602081830303815290604052805190602001206002828154811061059d5761059c612492565b5b90600052602060002090600602016000016040516020016105be9190612555565b6040516020818303038152906040528051906020012014156105e357600191506105f6565b80806105ee9061259b565b915050610555565b508061071257610711826040518060e001604052908160008201805461061b9061240d565b80601f01602080910402602001604051908101604052809291908181526020018280546106479061240d565b80156106945780601f1061066957610100808354040283529160200191610694565b820191906000526020600020905b81548152906001019060200180831161067757829003601f168201915b50505050508152602001600182015481526020016002820160009054906101000a900460ff161515151581526020016002820160019054906101000a900460ff16151515158152602001600382015481526020016004820160009054906101000a900460ff16151515158152602001600582015481525050611604565b5b505b5050565b60606001805480602002602001604051908101604052809291908181526020016000905b8282101561080a578382906000526020600020906002020160405180604001604052908160008201805461076f9061240d565b80601f016020809104026020016040519081016040528092919081815260200182805461079b9061240d565b80156107e85780601f106107bd576101008083540402835291602001916107e8565b820191906000526020600020905b8154815290600101906020018083116107cb57829003601f168201915b505050505081526020016001820154815250508152602001906001019061073c565b50505050905090565b606061082e8260006001855161082991906125e4565b6116d0565b819050919050565b6002818154811061084657600080fd5b90600052602060002090600602016000915090508060000180546108699061240d565b80601f01602080910402602001604051908101604052809291908181526020018280546108959061240d565b80156108e25780601f106108b7576101008083540402835291602001916108e2565b820191906000526020600020905b8154815290600101906020018083116108c557829003601f168201915b5050505050908060010154908060020160009054906101000a900460ff16908060020160019054906101000a900460ff16908060030154908060040160009054906101000a900460ff16908060050154905087565b60008060003373ffffffffffffffffffffffffffffffffffffffff1673ffffffffffffffffffffffffffffffffffffffff16815260200190815260200160002090506000610983611215565b90508160020160019054906101000a900460ff16156109d7576040517f08c379a00000000000000000000000000000000000000000000000000000000081526004016109ce9061268a565b60405180910390fd5b60018260020160016101000a81548160ff02191690831515021790555082826003018190555060008151811015610b1a57818181518110610a1b57610a1a612492565b5b602002602001015160000151604051602001610a37919061247b565b6040516020818303038152906040528051906020012083600001604051602001610a619190612555565b604051602081830303815290604052805190602001201415610adc57818181518110610a9057610a8f612492565b5b60200260200101516020015160018581548110610ab057610aaf612492565b5b90600052602060002090600202016001016000828254610ad091906126aa565b92505081905550610b1a565b601e60018581548110610af257610af1612492565b5b90600052602060002090600202016001016000828254610b1291906126aa565b925050819055505b50505050565b60018181548110610b3057600080fd5b9060005260206000209060020201600091509050806000018054610b539061240d565b80601f0160208091040260200160405190810160405280929190818152602001828054610b7f9061240d565b8015610bcc5780601f10610ba157610100808354040283529160200191610bcc565b820191906000526020600020905b815481529060010190602001808311610baf57829003601f168201915b5050505050908060010154905082565b60606002805480602002602001604051908101604052809291908181526020016000905b82821015610d3357838290600052602060002090600602016040518060e0016040529081600082018054610c339061240d565b80601f0160208091040260200160405190810160405280929190818152602001828054610c5f9061240d565b8015610cac5780601f10610c8157610100808354040283529160200191610cac565b820191906000526020600020905b815481529060010190602001808311610c8f57829003601f168201915b50505050508152602001600182015481526020016002820160009054906101000a900460ff161515151581526020016002820160019054906101000a900460ff16151515158152602001600382015481526020016004820160009054906101000a900460ff1615151515815260200160058201548152505081526020019060010190610c00565b50505050905090565b6000602052806000526040600020600091509050806000018054610d5f9061240d565b80601f0160208091040260200160405190810160405280929190818152602001828054610d8b9061240d565b8015610dd85780601f10610dad57610100808354040283529160200191610dd8565b820191906000526020600020905b815481529060010190602001808311610dbb57829003601f168201915b5050505050908060010154908060020160009054906101000a900460ff16908060020160019054906101000a900460ff16908060030154908060040160009054906101000a900460ff16908060050154905087565b60038181548110610e3d57600080fd5b9060005260206000209060060201600091509050806000018054610e609061240d565b80601f0160208091040260200160405190810160405280929190818152602001828054610e8c9061240d565b8015610ed95780601f10610eae57610100808354040283529160200191610ed9565b820191906000526020600020905b815481529060010190602001808311610ebc57829003601f168201915b5050505050908060010154908060020160009054906101000a900460ff16908060020160019054906101000a900460ff16908060030154908060040160009054906101000a900460ff16908060050154905087565b610f36611900565b6000805b60018054905081101561107b578160018281548110610f5c57610f5b612492565b5b90600052602060002090600202016001015411156110685760018181548110610f8857610f87612492565b5b906000526020600020906002020160010154915060018181548110610fb057610faf612492565b5b9060005260206000209060020201604051806040016040529081600082018054610fd99061240d565b80601f01602080910402602001604051908101604052809291908181526020018280546110059061240d565b80156110525780601f1061102757610100808354040283529160200191611052565b820191906000526020600020905b81548152906001019060200180831161103557829003601f168201915b5050505050815260200160018201548152505092505b80806110739061259b565b915050610f3a565b505090565b60008060003373ffffffffffffffffffffffffffffffffffffffff1673ffffffffffffffffffffffffffffffffffffffff16815260200190815260200160002090508060040160009054906101000a900460ff1615611114576040517f08c379a000000000000000000000000000000000000000000000000000000000815260040161110b90612772565b60405180910390fd5b8060020160009054906101000a900460ff1615611166576040517f08c379a000000000000000000000000000000000000000000000000000000000815260040161115d9061268a565b60405180910390fd5b6001600280549050116111ae576040517f08c379a00000000000000000000000000000000000000000000000000000000081526004016111a590612804565b60405180910390fd5b60018160020160006101000a81548160ff0219169083151502179055508181600301819055506001600283815481106111ea576111e9612492565b5b9060005260206000209060060201600501600082825461120a91906126aa565b925050819055505050565b6060600061137a6002805480602002602001604051908101604052809291908181526020016000905b8282101561137157838290600052602060002090600602016040518060e00160405290816000820180546112719061240d565b80601f016020809104026020016040519081016040528092919081815260200182805461129d9061240d565b80156112ea5780601f106112bf576101008083540402835291602001916112ea565b820191906000526020600020905b8154815290600101906020018083116112cd57829003601f168201915b50505050508152602001600182015481526020016002820160009054906101000a900460ff161515151581526020016002820160019054906101000a900460ff16151515158152602001600382015481526020016004820160009054906101000a900460ff161515151581526020016005820154815250508152602001906001019061123e565b50505050610813565b905060006001825161138c91906125e4565b90505b60008111156114a457600382516113a691906125e4565b8111156114915760038282815181106113c2576113c1612492565b5b60200260200101519080600181540180825580915050600190039060005260206000209060060201600090919091909150600082015181600001908051906020019061140f92919061187a565b506020820151816001015560408201518160020160006101000a81548160ff02191690831515021790555060608201518160020160016101000a81548160ff0219169083151502179055506080820151816003015560a08201518160040160006101000a81548160ff02191690831515021790555060c0820151816005015550505b808061149c90612824565b91505061138f565b506003805480602002602001604051908101604052809291908181526020016000905b828210156115fa57838290600052602060002090600602016040518060e00160405290816000820180546114fa9061240d565b80601f01602080910402602001604051908101604052809291908181526020018280546115269061240d565b80156115735780601f1061154857610100808354040283529160200191611573565b820191906000526020600020905b81548152906001019060200180831161155657829003601f168201915b50505050508152602001600182015481526020016002820160009054906101000a900460ff161515151581526020016002820160019054906101000a900460ff16151515158152602001600382015481526020016004820160009054906101000a900460ff16151515158152602001600582015481525050815260200190600101906114c7565b5050505091505090565b6002819080600181540180825580915050600190039060005260206000209060060201600090919091909150600082015181600001908051906020019061164c92919061187a565b506020820151816001015560408201518160020160006101000a81548160ff02191690831515021790555060608201518160020160016101000a81548160ff0219169083151502179055506080820151816003015560a08201518160040160006101000a81548160ff02191690831515021790555060c08201518160050155505050565b60008290506000829050808214156116e9575050611875565b600085600286866116fa9190612858565b611704919061291b565b8661170f9190612985565b815181106117205761171f612492565b5b602002602001015190505b818313611849575b8060c0015186848151811061174b5761174a612492565b5b602002602001015160c00151101561177057828061176890612a19565b935050611733565b5b85828151811061178457611783612492565b5b602002602001015160c001518160c0015110156117ae5781806117a690612a62565b925050611771565b818313611844578582815181106117c8576117c7612492565b5b60200260200101518684815181106117e3576117e2612492565b5b60200260200101518785815181106117fe576117fd612492565b5b6020026020010188858151811061181857611817612492565b5b602002602001018290528290525050828061183290612a19565b935050818061184090612a62565b9250505b61172b565b8185121561185d5761185c8686846116d0565b5b83831215611871576118708684866116d0565b5b5050505b505050565b8280546118869061240d565b90600052602060002090601f0160209004810192826118a857600085556118ef565b82601f106118c157805160ff19168380011785556118ef565b828001600101855582156118ef579182015b828111156118ee5782518255916020019190600101906118d3565b5b5090506118fc919061191a565b5090565b604051806040016040528060608152602001600081525090565b5b8082111561193357600081600090555060010161191b565b5090565b6000604051905090565b600080fd5b600080fd5b600080fd5b600080fd5b6000601f19601f8301169050919050565b7f4e487b7100000000000000000000000000000000000000000000000000000000600052604160045260246000fd5b61199e82611955565b810181811067ffffffffffffffff821117156119bd576119bc611966565b5b80604052505050565b60006119d0611937565b90506119dc8282611995565b919050565b600067ffffffffffffffff8211156119fc576119fb611966565b5b611a0582611955565b9050602081019050919050565b82818337600083830152505050565b6000611a34611a2f846119e1565b6119c6565b905082815260208101848484011115611a5057611a4f611950565b5b611a5b848285611a12565b509392505050565b600082601f830112611a7857611a7761194b565b5b8135611a88848260208601611a21565b91505092915050565b600060208284031215611aa757611aa6611941565b5b600082013567ffffffffffffffff811115611ac557611ac4611946565b5b611ad184828501611a63565b91505092915050565b600081519050919050565b600082825260208201905092915050565b6000819050602082019050919050565b600081519050919050565b600082825260208201905092915050565b60005b83811015611b40578082015181840152602081019050611b25565b83811115611b4f576000848401525b50505050565b6000611b6082611b06565b611b6a8185611b11565b9350611b7a818560208601611b22565b611b8381611955565b840191505092915050565b6000819050919050565b611ba181611b8e565b82525050565b60006040830160008301518482036000860152611bc48282611b55565b9150506020830151611bd96020860182611b98565b508091505092915050565b6000611bf08383611ba7565b905092915050565b6000602082019050919050565b6000611c1082611ada565b611c1a8185611ae5565b935083602082028501611c2c85611af6565b8060005b85811015611c685784840389528151611c498582611be4565b9450611c5483611bf8565b925060208a01995050600181019050611c30565b50829750879550505050505092915050565b60006020820190508181036000830152611c948184611c05565b905092915050565b600067ffffffffffffffff821115611cb757611cb6611966565b5b602082029050602081019050919050565b600080fd5b600080fd5b600080fd5b611ce081611b8e565b8114611ceb57600080fd5b50565b600081359050611cfd81611cd7565b92915050565b60008115159050919050565b611d1881611d03565b8114611d2357600080fd5b50565b600081359050611d3581611d0f565b92915050565b600060e08284031215611d5157611d50611ccd565b5b611d5b60e06119c6565b9050600082013567ffffffffffffffff811115611d7b57611d7a611cd2565b5b611d8784828501611a63565b6000830152506020611d9b84828501611cee565b6020830152506040611daf84828501611d26565b6040830152506060611dc384828501611d26565b6060830152506080611dd784828501611cee565b60808301525060a0611deb84828501611d26565b60a08301525060c0611dff84828501611cee565b60c08301525092915050565b6000611e1e611e1984611c9c565b6119c6565b90508083825260208201905060208402830185811115611e4157611e40611cc8565b5b835b81811015611e8857803567ffffffffffffffff811115611e6657611e6561194b565b5b808601611e738982611d3b565b85526020850194505050602081019050611e43565b5050509392505050565b600082601f830112611ea757611ea661194b565b5b8135611eb7848260208601611e0b565b91505092915050565b600060208284031215611ed657611ed5611941565b5b600082013567ffffffffffffffff811115611ef457611ef3611946565b5b611f0084828501611e92565b91505092915050565b600081519050919050565b600082825260208201905092915050565b6000819050602082019050919050565b611f3e81611d03565b82525050565b600060e0830160008301518482036000860152611f618282611b55565b9150506020830151611f766020860182611b98565b506040830151611f896040860182611f35565b506060830151611f9c6060860182611f35565b506080830151611faf6080860182611b98565b5060a0830151611fc260a0860182611f35565b5060c0830151611fd560c0860182611b98565b508091505092915050565b6000611fec8383611f44565b905092915050565b6000602082019050919050565b600061200c82611f09565b6120168185611f14565b93508360208202850161202885611f25565b8060005b8581101561206457848403895281516120458582611fe0565b945061205083611ff4565b925060208a0199505060018101905061202c565b50829750879550505050505092915050565b600060208201905081810360008301526120908184612001565b905092915050565b6000602082840312156120ae576120ad611941565b5b60006120bc84828501611cee565b91505092915050565b600082825260208201905092915050565b60006120e182611b06565b6120eb81856120c5565b93506120fb818560208601611b22565b61210481611955565b840191505092915050565b61211881611b8e565b82525050565b61212781611d03565b82525050565b600060e0820190508181036000830152612147818a6120d6565b9050612156602083018961210f565b612163604083018861211e565b612170606083018761211e565b61217d608083018661210f565b61218a60a083018561211e565b61219760c083018461210f565b98975050505050505050565b600060408201905081810360008301526121bd81856120d6565b90506121cc602083018461210f565b9392505050565b600073ffffffffffffffffffffffffffffffffffffffff82169050919050565b60006121fe826121d3565b9050919050565b61220e816121f3565b811461221957600080fd5b50565b60008135905061222b81612205565b92915050565b60006020828403121561224757612246611941565b5b60006122558482850161221c565b91505092915050565b6000604083016000830151848203600086015261227b8282611b55565b91505060208301516122906020860182611b98565b508091505092915050565b600060208201905081810360008301526122b5818461225e565b905092915050565b6000602082840312156122d3576122d2611941565b5b600082013567ffffffffffffffff8111156122f1576122f0611946565b5b6122fd84828501611d3b565b91505092915050565b7f596f7527726520616c72656164792064656c65676174652e0000000000000000600082015250565b600061233c6018836120c5565b915061234782612306565b602082019050919050565b6000602082019050818103600083015261236b8161232f565b9050919050565b7f596f752063616e6e6f742072656769737465722061732064656c65676174652e600082015250565b60006123a86020836120c5565b91506123b382612372565b602082019050919050565b600060208201905081810360008301526123d78161239b565b9050919050565b7f4e487b7100000000000000000000000000000000000000000000000000000000600052602260045260246000fd5b6000600282049050600182168061242557607f821691505b60208210811415612439576124386123de565b5b50919050565b600081905092915050565b600061245582611b06565b61245f818561243f565b935061246f818560208601611b22565b80840191505092915050565b6000612487828461244a565b915081905092915050565b7f4e487b7100000000000000000000000000000000000000000000000000000000600052603260045260246000fd5b60008190508160005260206000209050919050565b600081546124e38161240d565b6124ed818661243f565b9450600182166000811461250857600181146125195761254c565b60ff1983168652818601935061254c565b612522856124c1565b60005b8381101561254457815481890152600182019150602081019050612525565b838801955050505b50505092915050565b600061256182846124d6565b915081905092915050565b7f4e487b7100000000000000000000000000000000000000000000000000000000600052601160045260246000fd5b60006125a682611b8e565b91507fffffffffffffffffffffffffffffffffffffffffffffffffffffffffffffffff8214156125d9576125d861256c565b5b600182019050919050565b60006125ef82611b8e565b91506125fa83611b8e565b92508282101561260d5761260c61256c565b5b828203905092915050565b7f596f7527726520616c726561647920766f74656420666f7220796f757220646560008201527f6c65676174652e00000000000000000000000000000000000000000000000000602082015250565b60006126746027836120c5565b915061267f82612618565b604082019050919050565b600060208201905081810360008301526126a381612667565b9050919050565b60006126b582611b8e565b91506126c083611b8e565b9250827fffffffffffffffffffffffffffffffffffffffffffffffffffffffffffffffff038211156126f5576126f461256c565b5b828201905092915050565b7f596f7527726520616c736f2064656c65676174652e20596f752063616e6e6f7460008201527f20766f7465206174207468697320737465702021000000000000000000000000602082015250565b600061275c6034836120c5565b915061276782612700565b604082019050919050565b6000602082019050818103600083015261278b8161274f565b9050919050565b7f4e6f7420656e6f7567682064656c65676174657320666f722074686520766f7460008201527f652e000000000000000000000000000000000000000000000000000000000000602082015250565b60006127ee6022836120c5565b91506127f982612792565b604082019050919050565b6000602082019050818103600083015261281d816127e1565b9050919050565b600061282f82611b8e565b915060008214156128435761284261256c565b5b600182039050919050565b6000819050919050565b60006128638261284e565b915061286e8361284e565b9250827f8000000000000000000000000000000000000000000000000000000000000000018212600084121516156128a9576128a861256c565b5b827f7fffffffffffffffffffffffffffffffffffffffffffffffffffffffffffffff0182136000841216156128e1576128e061256c565b5b828203905092915050565b7f4e487b7100000000000000000000000000000000000000000000000000000000600052601260045260246000fd5b60006129268261284e565b91506129318361284e565b925082612941576129406128ec565b5b600160000383147f80000000000000000000000000000000000000000000000000000000000000008314161561297a5761297961256c565b5b828205905092915050565b60006129908261284e565b915061299b8361284e565b9250817f7fffffffffffffffffffffffffffffffffffffffffffffffffffffffffffffff038313600083121516156129d6576129d561256c565b5b817f8000000000000000000000000000000000000000000000000000000000000000038312600083121615612a0e57612a0d61256c565b5b828201905092915050565b6000612a248261284e565b91507f7fffffffffffffffffffffffffffffffffffffffffffffffffffffffffffffff821415612a5757612a5661256c565b5b600182019050919050565b6000612a6d8261284e565b91507f8000000000000000000000000000000000000000000000000000000000000000821415612aa057612a9f61256c565b5b60018203905091905056fea264697066735822122047c45d72c0bf7c7c16893f7e61661c250a86b092fa0af22cf59c3da87c1de4a864736f6c634300080b0033",
  "immutableReferences": {},
  "source": "pragma solidity ^0.8.11 ;\n\ncontract Poll {\n\n    struct Voter {\n        string name;\n        uint voteWeight; // weight for final vote =====> 30% if !isDelegate else 70%\n        bool votedForDelegate;  // if true, that person already voted for a delegate\n        bool votedForChairPerson;  // if true, that person already voted for the chairperson\n        uint vote;   // index of the voted candidate\n        bool isDelegate;\n        uint voteCount;\n    }\n\n    struct Candidate {\n        string name;\n        uint voteCount;\n    }\n\n    mapping(address => Voter) public voters;\n\n    Candidate[] public presidentialCandidates;\n    Voter[] public delegateCandidates;\n    Voter[] public delegates;\n\n    constructor(string[] memory presidentialCandidatesNames) {\n        for (uint i = 0; i < presidentialCandidatesNames.length; i++) {\n            presidentialCandidates.push(Candidate({\n            name: presidentialCandidatesNames[i],\n            voteCount: 0\n            }));\n        }\n    }\n\n    function getPresidentialCandidates() public view returns(Candidate[] memory presidentialCandidates_) {\n        presidentialCandidates_ = presidentialCandidates;\n    }\n\n    function addDelegateCandidate(Voter memory voter) public {\n        delegateCandidates.push(voter);\n    }\n\n    function getDelegateCandidates() public view returns(Voter[] memory delegateCandidates_) {\n        delegateCandidates_ = delegateCandidates;\n    }\n\n    function registerAsDelegateCandidate(string memory name) public {\n        Voter storage sender = voters[msg.sender];\n\n        require(!sender.isDelegate, \"You're already delegate.\");\n        require(delegateCandidates.length < 5, \"You cannot register as delegate.\");\n\n        sender.name = name;\n        sender.voteWeight = 70;\n        sender.votedForDelegate = false;\n        sender.votedForChairPerson = false;\n        sender.vote = 0;\n        sender.isDelegate = true;\n        sender.voteCount = 0;\n\n        if (delegateCandidates.length == 0) {\n            addDelegateCandidate(sender);\n        } else {\n            bool isExist = false;\n            for (uint i = 0; i < delegateCandidates.length; i++) {\n                if(keccak256(abi.encodePacked(delegateCandidates[i].name)) == keccak256(abi.encodePacked(name))) {\n                    isExist = true;\n                    break;\n                }\n            }\n            if(!isExist) {\n                addDelegateCandidate(sender);\n            }\n        }\n    }\n\n    //Create the first ballot to elect the delegate per location\n    function delegatesPoll(uint delegateCandidate) public {\n        Voter storage sender = voters[msg.sender];\n        require(!sender.isDelegate, \"You're also delegate. You cannot vote at this step !\");\n        require(!sender.votedForDelegate, \"You're already voted for your delegate.\");\n        require(delegateCandidates.length > 1, \"Not enough delegates for the vote.\");\n        sender.votedForDelegate = true;\n        sender.vote = delegateCandidate;\n        delegateCandidates[delegateCandidate].voteCount += 1;\n    }\n\n    function presidentialPoll(uint presidentialCandidate) public {\n        Voter storage sender = voters[msg.sender];\n        Voter[] memory winningDelegates = winningDelegatesPoll();\n        require(!sender.votedForChairPerson, \"You're already voted for your delegate.\");\n        sender.votedForChairPerson = true;\n        sender.vote = presidentialCandidate;\n        for(uint i = 0; i < winningDelegates.length; i++) {\n            if(keccak256(abi.encodePacked(sender.name)) == keccak256(abi.encodePacked(winningDelegates[i].name))) {\n                presidentialCandidates[presidentialCandidate].voteCount += winningDelegates[i].voteWeight;\n                break;\n            } else {\n                presidentialCandidates[presidentialCandidate].voteCount += 30;\n                break;\n            }\n        }\n\n    }\n\n    function winningDelegatesPoll() public returns (Voter[] memory winningDelegatesPoll_) {\n        Voter[] memory delegatesSorted = sort(delegateCandidates);\n        for (uint i = delegatesSorted.length - 1; i > 0; i--) {\n            if (i > delegatesSorted.length - 3) {\n                delegates.push(delegatesSorted[i]);\n            }\n        }\n        winningDelegatesPoll_ = delegates;\n    }\n\n    function winningPresidentialPoll() public view returns (Candidate memory winningPresidentialPoll_) {\n        uint voteCount = 0;\n        for (uint i = 0; i < presidentialCandidates.length; i++) {\n            if (presidentialCandidates[i].voteCount > voteCount) {\n                voteCount = presidentialCandidates[i].voteCount;\n                winningPresidentialPoll_ = presidentialCandidates[i];\n            }\n        }\n    }\n\n    function sort(Voter[] memory data) public returns(Voter[] memory) {\n        quickSort(data, int(0), int(data.length - 1));\n        return data;\n    }\n\n    function quickSort(Voter[] memory arr, int left, int right) internal {\n        int i = left;\n        int j = right;\n        if(i==j) return;\n        Voter memory pivot = arr[uint(left + (right - left) / 2)];\n        while (i <= j) {\n            while (arr[uint(i)].voteCount < pivot.voteCount) i++;\n            while (pivot.voteCount < arr[uint(j)].voteCount) j--;\n            if (i <= j) {\n                (arr[uint(i)], arr[uint(j)]) = (arr[uint(j)], arr[uint(i)]);\n                i++;\n                j--;\n            }\n        }\n        if (left < j)\n            quickSort(arr, left, j);\n        if (i < right)\n            quickSort(arr, i, right);\n    }\n\n}\n",
  "sourcePath": "/Users/paulolivier/Perso/School/Blockchain/contracts/Poll.sol",
  "compiler": {
    "name": "solc",
    "version": "0.8.11+commit.d7f03943.Emscripten.clang"
  },
  "schemaVersion": "3.4.3",
  "updatedAt": "2022-02-16T14:33:10.120Z",
  "networkType": "ethereum",
  "devdoc": {
    "kind": "dev",
    "methods": {},
    "version": 1
  },
  "userdoc": {
    "kind": "user",
    "methods": {},
    "version": 1
  }
}