{
  "contractName": "Poll",
  "abi": [
    {
      "inputs": [
        {
          "internalType": "uint256",
          "name": "",
          "type": "uint256"
        }
      ],
      "name": "delegateCandidates",
      "outputs": [
        {
          "internalType": "bytes32",
          "name": "name",
          "type": "bytes32"
        },
        {
          "internalType": "uint256",
          "name": "voteWeight",
          "type": "uint256"
        },
        {
          "internalType": "bool",
          "name": "votedForDelegate",
          "type": "bool"
        },
        {
          "internalType": "bool",
          "name": "votedForChairPerson",
          "type": "bool"
        },
        {
          "internalType": "bytes32",
          "name": "location",
          "type": "bytes32"
        },
        {
          "internalType": "uint256",
          "name": "vote",
          "type": "uint256"
        },
        {
          "internalType": "bool",
          "name": "isDelegate",
          "type": "bool"
        },
        {
          "internalType": "uint256",
          "name": "voteCount",
          "type": "uint256"
        }
      ],
      "stateMutability": "view",
      "type": "function"
    },
    {
      "inputs": [
        {
          "internalType": "uint256",
          "name": "",
          "type": "uint256"
        }
      ],
      "name": "presidentialCandidates",
      "outputs": [
        {
          "internalType": "bytes32",
          "name": "name",
          "type": "bytes32"
        },
        {
          "internalType": "uint256",
          "name": "voteCount",
          "type": "uint256"
        }
      ],
      "stateMutability": "view",
      "type": "function"
    },
    {
      "inputs": [
        {
          "internalType": "address",
          "name": "",
          "type": "address"
        }
      ],
      "name": "voters",
      "outputs": [
        {
          "internalType": "bytes32",
          "name": "name",
          "type": "bytes32"
        },
        {
          "internalType": "uint256",
          "name": "voteWeight",
          "type": "uint256"
        },
        {
          "internalType": "bool",
          "name": "votedForDelegate",
          "type": "bool"
        },
        {
          "internalType": "bool",
          "name": "votedForChairPerson",
          "type": "bool"
        },
        {
          "internalType": "bytes32",
          "name": "location",
          "type": "bytes32"
        },
        {
          "internalType": "uint256",
          "name": "vote",
          "type": "uint256"
        },
        {
          "internalType": "bool",
          "name": "isDelegate",
          "type": "bool"
        },
        {
          "internalType": "uint256",
          "name": "voteCount",
          "type": "uint256"
        }
      ],
      "stateMutability": "view",
      "type": "function"
    },
    {
      "inputs": [
        {
          "components": [
            {
              "internalType": "bytes32",
              "name": "name",
              "type": "bytes32"
            },
            {
              "internalType": "uint256",
              "name": "voteWeight",
              "type": "uint256"
            },
            {
              "internalType": "bool",
              "name": "votedForDelegate",
              "type": "bool"
            },
            {
              "internalType": "bool",
              "name": "votedForChairPerson",
              "type": "bool"
            },
            {
              "internalType": "bytes32",
              "name": "location",
              "type": "bytes32"
            },
            {
              "internalType": "uint256",
              "name": "vote",
              "type": "uint256"
            },
            {
              "internalType": "bool",
              "name": "isDelegate",
              "type": "bool"
            },
            {
              "internalType": "uint256",
              "name": "voteCount",
              "type": "uint256"
            }
          ],
          "internalType": "struct Poll.Voter",
          "name": "voter",
          "type": "tuple"
        }
      ],
      "name": "addDelegateCandidate",
      "outputs": [],
      "stateMutability": "nonpayable",
      "type": "function"
    },
    {
      "inputs": [
        {
          "internalType": "bytes32",
          "name": "name",
          "type": "bytes32"
        },
        {
          "internalType": "bytes32",
          "name": "location",
          "type": "bytes32"
        }
      ],
      "name": "registerAsDelegateCandidate",
      "outputs": [],
      "stateMutability": "nonpayable",
      "type": "function"
    },
    {
      "inputs": [
        {
          "internalType": "uint256",
          "name": "delegateCandidate",
          "type": "uint256"
        }
      ],
      "name": "delegatesPoll",
      "outputs": [],
      "stateMutability": "nonpayable",
      "type": "function"
    }
  ],
  "bytecode": "0x608060405234801561001057600080fd5b50610c02806100206000396000f3fe608060405234801561001057600080fd5b50600436106100625760003560e01c80631312685a146100675780631d7b24ff146100835780632a29eadb146100ba5780637b1c83cb146100eb578063a3ec138d14610107578063e7c1cabf1461013e575b600080fd5b610081600480360381019061007c91906105b1565b61015a565b005b61009d60048036038101906100989190610627565b610220565b6040516100b198979695949392919061068d565b60405180910390f35b6100d460048036038101906100cf9190610627565b61029f565b6040516100e292919061070b565b60405180910390f35b610105600480360381019061010091906108bb565b6102d3565b005b610121600480360381019061011c9190610947565b610396565b60405161013598979695949392919061068d565b60405180910390f35b61015860048036038101906101539190610627565b610405565b005b6000604051806101000160405280848152602001604681526020016000151581526020016000151581526020018381526020016000815260200160001515815260200160008152509050600060028054905014156101c0576101bb816102d3565b61021b565b60005b6002805490508110156102195783600282815481106101e5576101e4610974565b5b9060005260206000209060070201600001541461020657610205826102d3565b5b8080610211906109d2565b9150506101c3565b505b505050565b6002818154811061023057600080fd5b90600052602060002090600702016000915090508060000154908060010154908060020160009054906101000a900460ff16908060020160019054906101000a900460ff16908060030154908060040154908060050160009054906101000a900460ff16908060060154905088565b600181815481106102af57600080fd5b90600052602060002090600202016000915090508060000154908060010154905082565b6002819080600181540180825580915050600190039060005260206000209060070201600090919091909150600082015181600001556020820151816001015560408201518160020160006101000a81548160ff02191690831515021790555060608201518160020160016101000a81548160ff0219169083151502179055506080820151816003015560a0820151816004015560c08201518160050160006101000a81548160ff02191690831515021790555060e08201518160060155505050565b60006020528060005260406000206000915090508060000154908060010154908060020160009054906101000a900460ff16908060020160019054906101000a900460ff16908060030154908060040154908060050160009054906101000a900460ff16908060060154905088565b60008060003373ffffffffffffffffffffffffffffffffffffffff1673ffffffffffffffffffffffffffffffffffffffff16815260200190815260200160002090508060020160009054906101000a900460ff1615610499576040517f08c379a000000000000000000000000000000000000000000000000000000000815260040161049090610a9e565b60405180910390fd5b600282815481106104ad576104ac610974565b5b90600052602060002090600702016003015481600301541415610505576040517f08c379a00000000000000000000000000000000000000000000000000000000081526004016104fc90610b56565b60405180910390fd5b60018160020160006101000a81548160ff02191690831515021790555081816004018190555060016002838154811061054157610540610974565b5b906000526020600020906007020160060160008282546105619190610b76565b925050819055505050565b6000604051905090565b600080fd5b6000819050919050565b61058e8161057b565b811461059957600080fd5b50565b6000813590506105ab81610585565b92915050565b600080604083850312156105c8576105c7610576565b5b60006105d68582860161059c565b92505060206105e78582860161059c565b9150509250929050565b6000819050919050565b610604816105f1565b811461060f57600080fd5b50565b600081359050610621816105fb565b92915050565b60006020828403121561063d5761063c610576565b5b600061064b84828501610612565b91505092915050565b61065d8161057b565b82525050565b61066c816105f1565b82525050565b60008115159050919050565b61068781610672565b82525050565b6000610100820190506106a3600083018b610654565b6106b0602083018a610663565b6106bd604083018961067e565b6106ca606083018861067e565b6106d76080830187610654565b6106e460a0830186610663565b6106f160c083018561067e565b6106fe60e0830184610663565b9998505050505050505050565b60006040820190506107206000830185610654565b61072d6020830184610663565b9392505050565b600080fd5b6000601f19601f8301169050919050565b7f4e487b7100000000000000000000000000000000000000000000000000000000600052604160045260246000fd5b61078282610739565b810181811067ffffffffffffffff821117156107a1576107a061074a565b5b80604052505050565b60006107b461056c565b90506107c08282610779565b919050565b6107ce81610672565b81146107d957600080fd5b50565b6000813590506107eb816107c5565b92915050565b6000610100828403121561080857610807610734565b5b6108136101006107aa565b905060006108238482850161059c565b600083015250602061083784828501610612565b602083015250604061084b848285016107dc565b604083015250606061085f848285016107dc565b60608301525060806108738482850161059c565b60808301525060a061088784828501610612565b60a08301525060c061089b848285016107dc565b60c08301525060e06108af84828501610612565b60e08301525092915050565b600061010082840312156108d2576108d1610576565b5b60006108e0848285016107f1565b91505092915050565b600073ffffffffffffffffffffffffffffffffffffffff82169050919050565b6000610914826108e9565b9050919050565b61092481610909565b811461092f57600080fd5b50565b6000813590506109418161091b565b92915050565b60006020828403121561095d5761095c610576565b5b600061096b84828501610932565b91505092915050565b7f4e487b7100000000000000000000000000000000000000000000000000000000600052603260045260246000fd5b7f4e487b7100000000000000000000000000000000000000000000000000000000600052601160045260246000fd5b60006109dd826105f1565b91507fffffffffffffffffffffffffffffffffffffffffffffffffffffffffffffffff821415610a1057610a0f6109a3565b5b600182019050919050565b600082825260208201905092915050565b7f596f7527726520616c726561647920766f74656420666f7220796f757220646560008201527f6c65676174652e00000000000000000000000000000000000000000000000000602082015250565b6000610a88602783610a1b565b9150610a9382610a2c565b604082019050919050565b60006020820190508181036000830152610ab781610a7b565b9050919050565b7f596f752063616e6e6f7420766f746520666f722064656c65676174652074686160008201527f742773206e6f742063616e64696461746520696e20796f7572206c6f6361746960208201527f6f6e000000000000000000000000000000000000000000000000000000000000604082015250565b6000610b40604283610a1b565b9150610b4b82610abe565b606082019050919050565b60006020820190508181036000830152610b6f81610b33565b9050919050565b6000610b81826105f1565b9150610b8c836105f1565b9250827fffffffffffffffffffffffffffffffffffffffffffffffffffffffffffffffff03821115610bc157610bc06109a3565b5b82820190509291505056fea2646970667358221220b518445e7d78a5ac59e74e528988d83910ba5d93cf82af680e2767dcd930bc5764736f6c634300080a0033",
  "immutableReferences": {},
  "source": "pragma solidity 0.8.10;\n\ncontract Poll {\n\n    struct Voter {\n        bytes32 name;\n        uint voteWeight; // weight for final vote =====> 30% if !isDelegate else 70%\n        bool votedForDelegate;  // if true, that person already voted for a delegate\n        bool votedForChairPerson;  // if true, that person already voted for the chairperson\n        bytes32 location; // location of voter\n        uint vote;   // index of the voted candidate\n        bool isDelegate;\n        uint voteCount;\n    }\n\n    struct Candidate {\n        bytes32 name;\n        uint voteCount;\n    }\n\n    mapping(address => Voter) public voters;\n\n    Candidate[] public presidentialCandidates;\n    Voter[] public delegateCandidates;\n\n    function addDelegateCandidate(Voter memory voter) public {\n        delegateCandidates.push(voter);\n    }\n\n    function registerAsDelegateCandidate(bytes32 name, bytes32 location) public {\n        Voter memory voter = Voter({\n            name : name,\n            voteWeight: 70,\n            votedForDelegate: false,\n            votedForChairPerson: false,\n            location: location,\n            vote: 0,\n            isDelegate: false,\n            voteCount: 0\n        });\n\n        if (delegateCandidates.length == 0) {\n            addDelegateCandidate(voter);\n        } else {\n            for (uint i = 0; i < delegateCandidates.length; i++) {\n                if(delegateCandidates[i].name != name) {\n                    addDelegateCandidate(voter);\n                }\n            }\n        }\n    }\n\n    //Create the first ballot to elect the delegate per location\n    function delegatesPoll(uint delegateCandidate) public {\n        Voter storage sender = voters[msg.sender];\n        require(!sender.votedForDelegate, \"You're already voted for your delegate.\");\n        require(sender.location != delegateCandidates[delegateCandidate].location,\n            \"You cannot vote for delegate that's not candidate in your location\");\n        sender.votedForDelegate = true;\n        sender.vote = delegateCandidate;\n        delegateCandidates[delegateCandidate].voteCount += 1;\n    }\n\n    //function winningDelegatesPoll() public view returns (uint winning)\n\n}\n",
  "sourcePath": "/Users/ingrachen/IdeaProjects/vote-system/contracts/Poll.sol",
  "compiler": {
    "name": "solc",
    "version": "0.8.10+commit.fc410830.Emscripten.clang"
  },
  "schemaVersion": "3.4.3",
  "updatedAt": "2021-12-15T08:21:41.598Z",
  "devdoc": {
    "kind": "dev",
    "methods": {},
    "version": 1
  },
  "userdoc": {
    "kind": "user",
    "methods": {},
    "version": 1
  }
}